:020000040800F2
:10000000C80500209D010008F71600089315000898
:10001000D115000805030008BD21000800000000FC
:10002000000000000000000000000000431C000869
:100030000703000800000000411C0008451C0008E0
:10004000B7010008B7010008B7010008B7010008B0
:10005000B7010008B7010008B7010008B7010008A0
:10006000B7010008B7010008B7010008B701000890
:10007000B7010008B7010008B7010008B701000880
:10008000B7010008B7010008B7010008B701000870
:10009000B7010008B7010008B7010008B701000860
:1000A000B7010008B7010008B7010008B701000850
:1000B000B7010008B7010008B7010008B701000840
:1000C000B7010008B7010008B7010008B701000830
:1000D000B7010008B1210008B7010008B701000806
:1000E000B7010008B7010008B7010008B701000810
:1000F000B7010008B7010008B7010008B701000800
:10010000B7010008B7010008B7010008B7010008EF
:10011000B7010008B7010008591C0008B701000822
:10012000B7010008B7010008B7010008B7010008CF
:10013000B70100080000000000000000B70100083F
:10014000B7010008B7010008B7010008B7010008AF
:10015000B7010008B7010008B7010008B70100089F
:10016000B7010008B7010008B7010008B70100088F
:10017000B7010008B70100080000000000000000FF
:10018000B7010008B7010008DFF80CD000F090F8C4
:100190000048004759260008C80500200648804747
:1001A00006480047FEE7FEE7FEE7FEE7FEE7FEE75C
:1001B000FEE7FEE7FEE7FEE7491C000889010008AC
:1001C0002DE9F05F0546002092469B46884606468C
:1001D000814640241BE0284641464746224600F01F
:1001E00057F853465A46C01A914110D31146184643
:1001F000224600F03EF82D1A67EB01084F462246D2
:100200000120002100F035F817EB00094E41201EB7
:10021000A4F10104DFDC484631462A464346BDE8E6
:10022000F09FD2B201E000F8012B491EFBD27047CB
:100230000022F6E710B513460A4604461946FFF7B2
:10024000F0FF204610BD30B50B46014600202022AD
:10025000012409E021FA02F59D4205D303FA02F5D3
:10026000491B04FA02F52844151EA2F10102F1DC33
:1002700030BD202A04DB203A00FA02F1002070474A
:100280009140C2F1200320FA03F3194390407047D4
:10029000202A04DB203A21FA02F00021704721FADB
:1002A00002F3D040C2F12002914008431946704742
:1002B000064C074D06E0E06840F0010394E80700B3
:1002C00098471034AC42F6D3FFF762FF6C27000862
:1002D0008C270008024A1060101D01607047000062
:1002E0003408004000210846FFF7F4BF024A1060BE
:1002F000101D0160704700003408004000210846CE
:10030000FFF7F4BFFEE77047024A1060101D01605E
:10031000704700003404014000210846FFF7F4BF95
:10032000024A1060101D0160704700003404014053
:1003300000210846FFF7F4BF2DE9F0410446A76D00
:1003400000F052F9054694F835000026022806D040
:100350008020606584F834600120BDE8F081206869
:10036000016821F0160101602068416921F08001D7
:100370004161206C08B9A06C20B12068016821F0AF
:10038000080101602068016821F0010101600BE0B3
:1003900000F02AF9401B052806D9202034342062B9
:1003A000267003206070D8E720680068C007EFD18E
:1003B00034343F2094F828108840B860267001201B
:1003C00060700020C9E790F83510022903D0802121
:1003D000416501207047052180F8351000680168EB
:1003E00021F0010101600020704700002DE9F84F65
:1003F0000022DFF89C914FF0010809F1040A03275D
:100400004FF00F0C0AF1040B08FA02F50B682B40B1
:10041000AB4272D10C7904F00304012C01D0022C00
:1004200015D18668540007FA04FE26EA0E06D1F8B4
:100430000CE00EFA04FE4EEA060EC0F808E044682E
:10044000AC430D79C5F300159540254345600C7903
:10045000E443A40708D0C568540007FA04F6B5437E
:100460008E68A6402E43C6600C7904F00304022C6B
:1004700011D1D40800EB8406356A5407E40E0CFA57
:1004800004FE25EA0E05D1F810E00EFA04FE4EEA4D
:10049000050EC6F820E00568540007FA04F6B543D7
:1004A0000E7906F00306A6402E4306604C68E40071
:1004B00067D5384C256845F480452560246804F4E8
:1004C00080440094344C22F003052E19D6F80858C5
:1004D00094074FEA147E0CFA0EF4A5432F4CA04269
:1004E00001D1002424E02E4CA04201D101241FE0C0
:1004F0002C4CA04202D102241AE042E02A4CA04235
:1005000001D1032414E0294CA04201D104240FE0BE
:10051000274CA04201D105240AE0264CA04201D17B
:10052000062405E0244CA04201D1072400E0082461
:1005300004FA0EF42C43C6F80848D9F800409C434E
:100540004D68ED0300D51C43C9F80040DAF80040BF
:100550009C434D68AD0300D51C43CAF80040DBF84E
:1005600000409C434D68ED0200D51C43CBF8004091
:10057000074D0C352C689C434E68B60200D51C43D1
:100580002C60521C102AFFF43FAFBDE8F88F00002A
:10059000003C01404438024000300140000002406D
:1005A0000004024000080240000C0240001002401B
:1005B0000014024000180240001C0240426921EA77
:1005C00002030A4043EA024181617047002A01D0D8
:1005D000816170470904816170470000014800682B
:1005E000000C7047002004E001488068704700005C
:1005F0001000002002488168027811448160704731
:100600001000002010B50948016841F40071016034
:10061000016841F480610160052000F059F80F2065
:1006200000F006F800F026F8002010BD003C024063
:1006300070B504460D4D4FF47A712878B1FBF0F097
:100640000B490968B1FBF0F000F034FB08B1012060
:1006500070BD102C07D200222146501E00F018F861
:100660006C60002070BD012070BD000010000020F3
:10067000000000207047002809DB00F01F02012164
:1006800091404009800000F1E020C0F8001170475F
:10069000F0B40D460D4B1B68C3F30223C3F10704EE
:1006A000042C00D90424191D072901D2002300E0DD
:1006B000DB1E012606FA04F1491E294099409E409E
:1006C000761E16403143F0BC01F08ABD0CED00E00F
:1006D00000F00701054A10684FF6FF03184040EA92
:1006E0000120034908431060704700000CED00E052
:1006F0000000FA052DE9F04704460D46002C13D002
:10070000DFF82891D9F80000EFB200F00700A84206
:100710000CD289F80070D9F8000000F00700A84258
:1007200004D00120BDE8F0870120FBE72068404E9F
:10073000810712D5400703D5306840F4E05030609F
:100740002078000703D5306840F46040306030689E
:10075000A16820F0F000084330602078C00731D055
:10076000334960680839012808D002280BD00328D3
:1007700009D0096889070BD40120D3E709688903E8
:1007800006D40120CEE70968890101D40120C9E718
:10079000316821F0030101433160FFF725FF8046F6
:1007A00041F2883A07E0FFF71FFFA0EB0800504531
:1007B00001D90320B6E73068616800F00C00B0EBA7
:1007C000810FF0D1D9F8000000F00700A84209D944
:1007D00089F80070D9F8000000F00700A84201D0A5
:1007E00001209FE72078400705D53068E16820F4B4
:1007F000E050084330602078000706D53068216952
:1008000020F4604040EAC100306000F03FF83168F9
:10081000084AC1F30311515CC84007490860074802
:100820000068FFF705FF00207CE70000003C024065
:10083000083802405427000800000020140000205F
:1008400001480068704700000000002000B5FFF775
:10085000F7FF04490968044AC1F38221515CC8408A
:1008600000BD0000083802406427000800B5FFF70B
:10087000E7FF04490968044AC1F34231515CC840AA
:1008800000BD0000083802406427000810B5174872
:10089000006810F00C01164816D04310042912D03D
:1008A000082911D1114C241F216801F03F02216851
:1008B00049020AD52068C0F38810A0FB0301002379
:1008C000FFF77EFC09E0184610BD21680023C1F344
:1008D0008811A1FB0001FFF773FC2168C1F30141FE
:1008E000491C4900B0FBF1F010BD0000083802407F
:1008F0000024F4002DE9F84F0446002C13D0207892
:10090000DFF8A083C007A8F1040556D008F1040061
:100910000168C1F3810101290CD00068C0F3810096
:10092000022803D00DE00120BDE8F88FD8F80000C0
:10093000400206D5286880033FD5606870BB01205F
:10094000F2E76068B0F5803F10D0B0F5A02F12D06C
:10095000286820F480302860286820F480202860EF
:100960006068E0B1FFF740FE064614E0286840F4F6
:1009700080302860F4E7286840F4802028602868E8
:1009800040F480302860EBE7FFF72EFE801B6428E0
:1009900001D90320C8E728688003F5D50DE0FFF7EB
:1009A00023FE064606E0FFF71FFE801B642801D9E0
:1009B0000320B9E728688003F5D42078BA4F800770
:1009C0004FF0000948D5B748001D016811F00C0F21
:1009D00008D00068C0F38100022813D1D8F80000C5
:1009E00040020FD42868800704D5E068012801D0B0
:1009F000012099E72868216920F0F80040EAC10049
:100A0000286029E0E068B8B101203860FFF7ECFD0C
:100A1000064606E0FFF7E8FD801B022801D9032007
:100A200082E728688007F5D52868216920F0F8005A
:100A300040EAC10028600FE0C7F80090FFF7D4FD3E
:100A4000064606E0FFF7D0FD801B022801D90320EF
:100A50006AE728688007F5D42078000729D5DFF8F1
:100A600044A2924861690AF1700A89B101210160CA
:100A7000FFF7BAFD064606E0FFF7B6FD801B022829
:100A800001D9032050E7DAF800008007F4D510E020
:100A9000C0F80090FFF7A8FD064606E0FFF7A4FDAA
:100AA000801B022801D903203EE7DAF80000800706
:100AB000F4D42078400778D54FF0000A79483C30CC
:100AC0000068C0000BD477483C30016841F0805189
:100AD0000160006800F0805000904FF0010ADFF8DC
:100AE000D0B1DBF80000C00514D4DBF8000040F4FE
:100AF0008070CBF80000FFF777FD064606E0FFF7B1
:100B000073FD801B022801D903200DE7DBF80000EC
:100B1000C005F4D5634EA0686C3601280FD00528B7
:100B200012D0306820F001003060306820F00400FE
:100B30003060A068F8B1FFF757FD834617E03068D2
:100B400040F001003060F4E7306840F004003060AD
:100B5000306840F001003060EBE7FFF745FDA0EBA7
:100B60000B0141F28830814201D90320DCE6306874
:100B70008007F2D510E0FFF737FD834609E0FFF765
:100B800033FDA0EB0B0141F28830814201D90320F3
:100B9000CAE630688007F2D4BAF1010F05D14148A6
:100BA0003C30016821F080510160A069C0B33D492B
:100BB000091D09684FF0FF36C1F38101022946D0B3
:100BC000022805D0C7F86090FFF70EFD04463AE012
:100BD000C7F86090FFF708FD814607E0FFF704FDC6
:100BE000A0EB0900022801D903209DE628688001B6
:100BF000F4D4D4E907010843616AA26A890106EBCB
:100C0000520241EA0241084394F82C1040EA016084
:100C1000C8F8000001203866FFF7E6FC044607E04C
:100C20003DE0FFF7E1FC001B022801D903207BE631
:100C300028688001F5D532E0FFF7D6FC001B0228BA
:100C400001D9032070E628688001F5D427E0012847
:100C500023D0D8F80000E26900F4800191421AD153
:100C6000226A00F03F01914215D147F6C071626AD5
:100C70000140B1EB821F0ED1A26A00F4403106EBB5
:100C80005202B1EB024F06D194F82C1000F07060C4
:100C9000B0EB016F03D0012046E6012044E60020BE
:100CA00042E600000438024000004742800E4742FE
:100CB0000070004010B5401EB0F1807F01D30120CC
:100CC00010BD4FF0E02460610F21601701F088FA39
:100CD0000020A06107202061002010BD70477047F0
:100CE00010B50446002C03D094F83D0010B107E085
:100CF000012010BD002084F83C00204600F016F8CA
:100D0000022084F83D00211D206800F0ABFF012087
:100D10003D3460726070A070E07020716071A071ED
:100D2000E07120722070002010BD000008B500683E
:100D30000B49884212D10B48016841F01001016053
:100D4000006800F010000090012211463620FFF7E5
:100D50009FFCBDE808403620FFF78DBC08BD0000B1
:100D6000001000404038024090F83D10012901D0A9
:100D700001207047022180F83D100168CA6842F0E6
:100D80000102CA6000681449884214D0B0F1804F53
:100D900011D0124988420ED0114988420BD0114916
:100DA000884208D01049884205D01049884202D0B4
:100DB0000F49884209D1816801F00701062908D04E
:100DC000016841F00101016003E0016841F00101A7
:100DD0000160002070470000000001400004004056
:100DE00000080040000C00400004014000400140A9
:100DF00000180040704770B50446206801694FF044
:100E00000005C943890716D4C168C943890712D4AC
:100E1000E91E01610120207720688069800703D0E6
:100E20002046FFF7E7FF05E0204600F09BF820464C
:100E300000F080F9257720680169C943490718D473
:100E4000C168C943490714D46FF00401016102204D
:100E500020772068806910F4407F03D02046FFF798
:100E6000C9FF05E0204600F07DF8204600F062F959
:100E7000257720680169C943090717D4C168C943A8
:100E8000090713D46FF0080101610420207720685E
:100E9000C069800703D02046FFF7ACFF05E020467D
:100EA00000F060F8204600F045F9257720680169D8
:100EB000C943C90618D4C168C943C90614D46FF020
:100EC00010010161082020772068C06910F4407F7C
:100ED00003D02046FFF78EFF05E0204600F042F8E1
:100EE000204600F027F9257720680169C943C90722
:100EF00008D1C168C943C90704D1891E01612046D0
:100F000000F088F920680169C943090609D4C1685D
:100F1000C943090605D46FF0800101612046FFF73F
:100F2000DDFE20680169C943490609D4C168C94387
:100F3000490605D46FF040010161204600F074F9C4
:100F400020680169C94389060BD4C168C943890671
:100F500007D46FF0200101612046BDE87040FFF723
:100F6000BEBE70BD704770B504460D4694F83C0097
:100F700001280AD0012084F83C0042B1042A1AD08A
:100F8000082A2DD00C2A53D13EE0022070BD2946FC
:100F9000206800F0DBFE2068816941F00801816172
:100FA0002068816921F004018161206881692A69D2
:100FB000114381613CE02946206800F0FBFE206877
:100FC000816941F4006181612068816921F4806157
:100FD0008161206881692A6941EA0221816127E0F3
:100FE0002946206800F020FF2068C16941F008010F
:100FF000C1612068C16921F00401C1612068C16933
:101000002A691143C16113E02946206800F044FFBA
:101010002068C16941F40061C1612068C16921F49F
:101020008061C1612068C1692A6941EA0221C16108
:10103000002084F83C0070BD10B50446002C03D09D
:1010400094F83D0010B107E0012010BD002084F8A5
:101050003C00204600F016F8022084F83D00211DD7
:10106000206800F0FFFD01203D3460726070A070C8
:10107000E07020716071A071E0712072207000201A
:1010800010BD00002DE9F04186B0064624493068C5
:10109000244D022401274FF4707888421CD128681F
:1010A00040F004002860286800F0040000901D490A
:1010B0001431086840F002000860086800F002007F
:1010C0000090CDF8048002940397049403200590C7
:1010D00001A91548FFF78AF91449306888421BD1E5
:1010E000286840F002002860286800F002000090A4
:1010F0000C481030016841F004010160006800F004
:1011000004000090CDF804800294039704940594A1
:1011100001A90748FFF76AF906B0BDE8F0810000B1
:10112000000401403038024000080240000800403E
:10113000000402407047000010B50446002909D0A1
:1011400004290AD008290BD094F8410001280AD0BC
:10115000012010BD94F83E00F8E794F83F00F5E751
:1011600094F84000F2E70220A9B3042937D00829F7
:1011700038D084F841000122206800F0D9FD1E49D2
:1011800020681E4A884201D0904203D1436C43F448
:10119000004343642068884213D0B0F1804F10D0E0
:1011A000174988420DD0174988420AD0164988420B
:1011B00007D0904205D01549884202D01449884290
:1011C00013D1816801F00701062912D0016841F0AE
:1011D000010101600DE0FFE784F83E00CBE784F8F1
:1011E0003F00C8E784F84000C5E7016841F001010D
:1011F0000160002010BD000000000140000401401B
:101200000004004000080040000C00400040014085
:101210000018004000680349884201D100F06CBA10
:101220007047000000100040704770477047000092
:10123000F8B5044622681068D168536900F00F05BC
:10124000002D08D1860606D58E0604D52046BDE8B9
:10125000F84000F080BE0026002D60D003F00105AC
:1012600001F490772F435AD0C20705D0CA0503D5A1
:10127000226C42F001022264420705D5DA0703D04E
:10128000226C42F002022264820705D5DA0703D0FD
:10129000226C42F004022264020707D501F020020A
:1012A0002A4303D0226C42F008022264226C002AF6
:1012B0002BD0800604D5880602D5204600F04BFED0
:1012C00020684069C0F38010216C090700D408B37E
:1012D000204600F01BFE20684169490616D5416989
:1012E00021F040014161A06B60B144490165A06BF0
:1012F000FFF769F8002808D0A06B016D01B0BDE8C8
:10130000F04008472046FFF791FFF8BD2046FFF761
:101310008DFFF8BD2046FFF789FF2664F8BD236BDB
:10132000012B58D1C30656D5CB0654D5106850684A
:10133000009050694FF0200340062ED5A16B08683D
:10134000406880B20028E9D0A58D8542E6D9E085C5
:10135000C869B0F5807F18D0D06820F48070D06064
:101360002068416921F0010141612068416921F053
:101370004001416184F83E3026632068C16821F055
:101380001001C160A06BFEF7D7FFA08DE18D401A60
:1013900081B22046FFF749FFF8BDA08DE18D401ACC
:1013A00081B2E08D0028F7D00029F5D0D06820F474
:1013B0009070D0602068426922F00102426184F896
:1013C0003E3026632068C26822F01002C2602046C8
:1013D000FFF72BFFF8BD020606D50A0604D5204606
:1013E000BDE8F84000F0B5BE4006F3D54806F1D59B
:1013F0002046BDE8F84000F0A1BD0000FD1E000839
:1014000070B50446002C04D094F83D00002510B1BE
:1014100006E0012070BD84F83C50204600F022F820
:10142000242084F83D002068C16821F40051C16087
:10143000204600F0E9FD2068016921F49041016136
:101440002068416921F02A0141612068C16841F4A6
:101450000051C1602564202084F83D0084F83E00DE
:10146000002070BD30B587B000681F49884238D170
:101470001E48016841F010010160006800F0100092
:1014800001901A481438016841F0010101600168B7
:1014900001F001010191016841F001010160006862
:1014A00000F0010001904FF40070029002200390C0
:1014B000012104910590072406940D4D02A92846A8
:1014C000FEF794FF29150291069402A92846FEF71B
:1014D0008DFF2520FFF7CFF8032211462520FFF7C7
:1014E000D7F807B030BD000000100140443802407A
:1014F0000000024090F83E30202B01D002207047BF
:1015000059B152B190F83C30012B08D0012380F83A
:101510003C300023036300F001BE0120704702202D
:101520007047000030B400681649884228D1164A36
:101530005088010419D41146440409784FF000037F
:1015400007D50A2901D053800FE040F400405080B5
:101550000BE00D2910D00D4DC0F30D042955401C92
:1015600080B25080C72800D953800848012230BC7F
:101570000549C830FFF7BEBF40F480405080F4E713
:1015800030BC704700100140080000205C000020C3
:101590007047FEE710B5FFF735F807230222082150
:1015A0004FF4A87001F05EF8A82000F0EFFF4FF4B0
:1015B000E13001F0B3F842F2CF01092000F0D2FF90
:1015C00001F010F800F078FABDE8104000F07EB8A5
:1015D000FEE7000030B599B005460C461C21684670
:1015E000FEF726FE194A07920894002409940A95EA
:1015F00007A8FFF721FD60200090019402940822C3
:10160000694607A8FFF7AFFC082107A8FFF794FD7C
:101610000C22694607A8FFF7A6FC0C2107A8FFF7D4
:101620008BFD0022694607A8FFF79DFC002107A853
:10163000FFF782FD0422694607A8FFF794FC042106
:1016400007A8FFF779FD19B030BD00000008004081
:1016500030B599B005460C461C216846FEF7E8FDFA
:10166000194A07920894002409940A9507A8FFF7DD
:10167000E3FC60200090019402940822694607A8C8
:10168000FFF771FC082107A8FFF756FD0C226946F9
:1016900007A8FFF768FC0C2107A8FFF74DFD002203
:1016A000694607A8FFF75FFC002107A8FFF744FD84
:1016B0000422694607A8FFF756FC042107A8FFF794
:1016C0003BFD19B030BD00000004014010B540F2F0
:1016D000E73453212046FFF7BBFF29212046FFF7BF
:1016E00079FFFEF719FEFEF723FEFEF7FBFDBDE8CE
:1016F0001040FEF703BE7047F0B500200E4C0026E8
:101700000127211F0D7814E000EB400104EB81025A
:10171000137963B934F821305B1C9BB224F8213073
:10172000B2F802C0634502D324F821601771401C4F
:10173000C0B2A842E8D3F0BD200000200149085CF7
:1017400070470000B00100207CB500F0C5F82C4CBB
:101750002070092849D00B2847D00A284AD00C28E5
:1017600048D00021084600F0FBF90720FFF7E6FF0C
:1017700060700820FFF7E2FFA0700520FFF7DEFF92
:10178000E0700620FFF7DAFF207161788026773954
:10179000132900D26670A1787F257739132900D2EA
:1017A000A570617880394AB26271A178C1F17F0178
:1017B0004BB2A371E1787739132900D2E6707738FC
:1017C000132800D225716271A371E078803840B28D
:1017D000E0712179C1F17F0149B22172CDE90001A7
:1017E000217808A000F0ECFC7CBDFF21002000F077
:1017F000B7F9BAE70021FF2000F0B2F9B5E7000021
:10180000B9010020256420697320707265737365C7
:10181000640D0A2C4C4546545F583A2535642C4CCF
:101820004546545F593A25642C52494748545F58FD
:101830003A25642C52494748545F593A25640D0AA9
:10184000000000000020044A00211154401CC0B2D6
:101850000928FAD370470000B00100202DE9F843B1
:101860008046012500951A4E002777700095194C87
:1018700024E0BDF8000010EA080F02D0C4F8B4520A
:1018800001E0C4F8B472C4F8BC520A2000F084FE2F
:10189000C4F8BC720A2000F07FFEC4F8BC52D4F831
:1018A000300220B17178BDF8000001437170BDF8BD
:1018B00000004FF6FF7101EA40000090BDF8000003
:1018C000FF28D6D9BDE8F843102000F065BE00001F
:1018D000B00100200080404270B5FFF7B3FF00F078
:1018E0009DF80D48C178007941EA00210B484180FC
:1018F00000200A4B1B1D012513F81040641E05FA39
:1019000004F20A4202D1401CC0B270BD401CC0B2F9
:101910001028F1D3002070BDB00100203800002055
:1019200010B5144C00202060102000F035FE01207E
:10193000FFF794FF4320FFF791FF0020FFF78EFF92
:101940000120FFF78BFF0020FFF788FF0020FFF743
:1019500085FF0020FFF782FF0020FFF77FFF0020B8
:10196000FFF77CFF01202060BDE81040102000F050
:1019700013BE0000B882404210B5144C0020206015
:10198000102000F009FE0120FFF768FF4320FFF759
:1019900065FF0020FFF762FF0020FFF75FFF5A207E
:1019A000FFF75CFF5A20FFF759FF5A20FFF756FF59
:1019B0005A20FFF753FF5A20FFF750FF0120206005
:1019C000BDE81040102000F0E7BD0000B8824042A2
:1019D00030B587B00F48016841F00201016000682E
:1019E00000F0020001904FF4805002900224059410
:1019F0000394094D02A92846FEF7F8FC4FF4604114
:101A0000029105940121039102A92846FEF7EEFCFC
:101A100007B030BD30380240000402402DE9FC41DF
:101A20000027019701260096204CC4F8B872204D7B
:101A30002878FFF713FF6878FFF710FF0220019066
:101A40002CE000961B4D4FF6FF781CE0C4F8BC62FA
:101A50000A2000F0A1FDC4F8BC720A2000F09CFD31
:101A6000C4F8BC62D4F8300240B19DF80400BDF85F
:101A70000010285C08439DF804106854BDF800006D
:101A800008EA40000090BDF80000FF28DED91020D1
:101A900000F082FD9DF80400401C01909DF80400B8
:101AA0000928CED3C4F8B862BDE8FC81008040426A
:101AB00038000020B001002010B5FFF789FF00F0CA
:101AC0000FF800F00DF800F00BF8FFF729FF00F019
:101AD00075F800F025F8BDE81040FFF74DBF000095
:101AE00010B50E4C00202060102000F055FD0120A4
:101AF000FFF7B4FE4220FFF7B1FE0020FFF7AEFE75
:101B00000020FFF7ABFE0020FFF7A8FE01202060B9
:101B1000BDE81040102000F03FBD0000B8824042F8
:101B200010B50E4C00202060102000F035FD012083
:101B3000FFF794FE4D20FFF791FE0020FFF78EFE89
:101B40000020FFF78BFE0120FFF788FE01202060B8
:101B5000BDE81040102000F01FBD0000B8824042D8
:101B600070B506460D46144C00222260102000F08D
:101B700013FD0120FFF772FE4220FFF76FFE0020E9
:101B8000FFF76CFE3046FFF769FE2846FFF766FE5A
:101B90000020FFF763FE0020FFF760FE0020FFF744
:101BA0005DFE0020FFF75AFE01202060BDE8704076
:101BB000102000F0F1BC0000B882404210B5124C79
:101BC000002020600120FFF749FE4420FFF746FE79
:101BD0000020FFF743FE0120FFF740FEEE20FFF755
:101BE0003DFE0020FFF73AFE0020FFF737FE002001
:101BF000FFF734FE0020FFF731FE01202060BDE832
:101C00001040102000F0C8BCB8824042FFF7C2FC70
:101C100000240A4E0027A6F1040804EB440006EB5A
:101C20008005287910B1A86880472F71641C98F846
:101C30000000E4B28442F0D30024EEE7200000204C
:101C400070477047FEF7D6BC0248016841F4700146
:101C50000160704788ED00E00148FFF7CCB8000054
:101C6000680100202DE9F0410268264D264E274FDD
:101C7000DFF89CC0274B4FF08048A84209D0404570
:101C800007D0B04205D0B84203D0604501D0984299
:101C900003D122F070044A682243A8421BD0404579
:101CA00019D0B04217D0B84215D0604513D0984231
:101CB00011D0194CA0420ED0184CA0420BD0184C99
:101CC000A04208D0174CA04205D0174CA04202D029
:101CD000164CA04203D122F44074CA6822434C69D6
:101CE00022F08002224302608A68C2620A6882622D
:101CF000A84201D0984201D10969016301214161E3
:101D0000BDE8F081000001400004004000080040F0
:101D1000000C00400004014000400140004401402C
:101D20000048014000180040001C00400020004016
:101D300010B501F01F0101238B40046A9C4304622B
:101D4000036A8A401343036210BD0000F0B5026AC3
:101D500022F001020262026A4368846924F070047E
:101D600024F003050C682C4322F002058A682A43FC
:101D70000E4E0F4FB04201D0B84205D122F00805F7
:101D8000CA682A4322F00402B04201D0B84207D107
:101D900023F4807323F400734D691D438B692B4337
:101DA00043608461496841630262F0BD0000014004
:101DB00000040140F0B5026A22F010020262036AD8
:101DC0004268846924F4E04424F440740D6844EAD1
:101DD000052423F020038D6843EA0513104D114EAE
:101DE000A84201D0B04206D123F08003CF6843EA75
:101DF000071323F04003A84201D0B04209D122F4D6
:101E0000806222F400624D6942EA85028D6942EAED
:101E1000850242608461496881630362F0BD00000D
:101E20000000014000040140F0B5026A22F4807213
:101E30000262026A4368C46924F0700424F0030556
:101E40000C682C4322F400728D6842EA0522104D82
:101E5000104EA84201D0B04206D122F40062CF68F1
:101E600042EA072222F48062A84201D0B04209D19E
:101E700023F4805323F400534D6943EA05138D691D
:101E800043EA05134360C4614968C1630262F0BD5F
:101E9000000001400004014030B5026A22F4805283
:101EA0000262046A4268C36923F4E04323F4407386
:101EB0000D6843EA052324F400548D6844EA053490
:101EC000084DA84202D0084DA84204D122F4804215
:101ED0004D6942EA85124260C36149680164046247
:101EE00030BD00000000014000040140FFF72CBCA1
:101EF00004210148FEF762BB000C024010B5806B64
:101F00000021C185C184FFF791F910BD0168CA683D
:101F100022F49072CA6001684A6922F001024A61A3
:101F2000016B012904D10168CA6822F01002CA605D
:101F3000202180F83E1000210163704710B5016830
:101F4000CA6822F04002CA60202180F83D10FFF7E5
:101F50001FFB002010BD10B5044694F83E00222857
:101F600001D0022010BDA1684FF48052914201D1EE
:101F7000206920B1A06A91421DD051B10BE0A06A46
:101F800021684968C1F308010180A06A801CA06231
:101F900009E0216979B12168496801F07F01017088
:101FA000A06A401CA062E08D401E0004000CE08589
:101FB00005D0002010BD216849680170F0E7206855
:101FC000C16821F02001C1602068C16821F48071DE
:101FD000C1602068416921F001014161202084F83D
:101FE0003E00206B012805D02046FFF79BFA002019
:101FF000206310BD2068C16821F01001C160A18D6F
:102000002046FFF712F9F2E72DE9F0410446206877
:102010000169E26821F4405111430161A16820691E
:10202000E26901436069104301432068C26849F2D4
:102030000C639A430A43C26020684169A26921F493
:1020400040711143416133492068884202D03249CE
:10205000884202D1FEF70AFC01E0FEF7F7FBE169D6
:102060000023192764253226B1F5004F28D0616876
:102070008B0F8A00A0FB0701FEF7A2F80146B0FB18
:10208000F5F07A42504301EB800006EB0010B0FB04
:10209000F5F000F0F002B1FBF5F002EB0012B1FB3D
:1020A000F5F07B42584301EB800006EB0010B0FBDB
:1020B000F5F0216800F00F0010448860BDE8F08161
:1020C00061684A18A0FB07015B41FEF779F80146F9
:1020D000B0FBF5F00201B1FBF5F06FF018035843C7
:1020E00001EB800006EBC000B0FBF5F000F0F8005B
:1020F00002EB4002B1FBF5F0584301EB800006EB28
:10210000C000B0FBF5F0216800F0070010448860C3
:10211000D4E7000000100140001401408162828574
:10212000C28500210164222280F83E2080F83C1004
:102130000168CA6842F48072CA6001684A6942F064
:1021400001024A610068C16841F02001C1600020BD
:10215000704790F83D10212901D002207047816816
:10216000B1F5805F01D1016961B1016A4A1C026267
:10217000026809785160C18C491E0904090CC184A8
:102180000AD013E0016A02680988C1F308015160AE
:10219000016A891C0162EEE70168CA6822F08002C8
:1021A000CA600068C16841F04001C160002070470A
:1021B0000148FFF73DB8000024010020FEE70000C1
:1021C0000FB4054B10B503A9044A029800F028F893
:1021D00010BC5DF814FB0000D12500080C000020A5
:1021E0000907090E002804DB00F1E02080F8001444
:1021F000704700F00F0000F1E02080F8141D7047D8
:1022000002E008C8121F08C1002AFAD170477047BF
:10221000002001E001C1121F002AFBD1704700001D
:102220002DE9FF4F8BB088460546002606E025289D
:102230000BD0DDE90D1290476D1C761C2878002824
:10224000F5D10FB03046BDE8F08F0024A146A2467C
:102250000122AE4900E0044315F8013F203B02FA99
:1022600003F00842F7D128782A2810D06FF02F0207
:102270002878A0F13001092915D809EB890102EB72
:10228000410144F0020400EB01096D1CF0E758F82D
:10229000041B5FEA010903D544F40054C9F10009A5
:1022A00044F002046D1C28782E2817D115F8010F70
:1022B00044F004042A280ED06FF02F022878A0F1F1
:1022C000300109290AD80AEB8A0102EB410100EB2F
:1022D000010A6D1CF2E758F804AB6D1C28786C28D5
:1022E0000FD006DC4C2817D068280DD06A2814D1EE
:1022F00004E0742810D07A280FD10DE044F40014C3
:102300000AE044F4801401E044F440146978814206
:1023100002D104F580146D1C6D1C2878692865D0E5
:1023200006DC00288DD0632827D0642806D15DE024
:102330006E2808D073282AD0752877D0DDE90D12D1
:102340009047761CE0E0C4F30250022809D003282D
:102350000DD0D8F8001004280DD00E6008F1040844
:10236000D2E0D8F80010F217C1E90062F6E7D8F819
:1023700000100E80F2E70E70F0E718F8041B8DF8DD
:10238000001000208DF80100EB46012003E058F812
:1023900004BB4FF0FF3061074FF0000701D40AE0A3
:1023A0007F1C57450DDA8742FADB1BF8071000291E
:1023B000F6D106E07F1C8742FCDB1BF807100029E2
:1023C000F8D1DDE90D23A9EB07008146214600F095
:1023D000B1F83044C61904E0DDE90D121BF8010B19
:1023E00090477F1EF8D22146484688E058F8040BF3
:1023F000C4F302514FF00A0B032900D100B20429A3
:1024000000D140B2002802DA40422D2102E021052D
:1024100005D52B218DF82410012104E006E0E10709
:1024200010D02021F6E708AF089113E058F8040B0C
:10243000C4F302514FF00A0B032900D180B20429E2
:1024400000D1C0B20021EEE75946FDF7FCFE303165
:1024500007F8011D0028F7D1ADEB070000F1200BB4
:10246000600702D524F4803401E04FF0010ADA4518
:1024700002DDAAEB0B0000E00020824600EB0B011E
:1024800008980144A9EB01000A90E00306D4DDE9B5
:102490000D2321460A9800F04DF806444FF000093C
:1024A00008E009A911F80900DDE90D12904709F1CA
:1024B0000109761C08998945F3DBE0030CD5DDE9B9
:1024C0000D2321460A9800F035F8064404E0DDE9C2
:1024D0000D1230209047761CBAF10001AAF1010AD2
:1024E000F5DC05E0DDE90D1217F8010B9047761CCD
:1024F000BBF10001ABF1010BF4DC0A982146DDE9E8
:102500000D2300F005F806446D1C97E6092801002C
:102510002DE9F041044600251E461746880404D4E0
:1025200005E039462020B0476D1C641EF9D52846C9
:10253000BDE8F0812DE9F041044600251E46904695
:10254000C80301D5302700E02027880404D505E022
:1025500041463846B0476D1C641EF9D52846BDE893
:10256000F081000010B5084A064B1360516000214D
:102570009160D0601046FEF7B3FBBDE81040024802
:10258000FEF7F2BB0010004068010020014908601E
:10259000704700000400002070B500214FF0E025D6
:1025A0006C690A4A12685043AB69AA699A42FCD026
:1025B00003D2A3EB0203194403E0A4EB0206334465
:1025C000194413468142F0D370BD0000040000207E
:1025D00003490A685206FCD5C2B24A60704700003F
:1025E0000010014070B586B01848016841F0010143
:1025F0000160016801F001010091016841F00801EA
:102600000160006800F0080000904FF480740194AD
:10261000012002900390022004900D4D01A928464C
:10262000FDF7E4FE042201920A4E01A93046FDF7AF
:10263000DDFE012221462846FDF7C8FF01220421C4
:102640003046FDF7C3FF06B070BD000030380240D1
:1026500000000240000C024010B5FFF7D7FA00203E
:1026600010BD00002DE9F04393B006460F4690469A
:102670009946302107A8FDF7DBFD142102A8FDF7DC
:10268000D7FD0025224C206840F080502060206853
:1026900000F0805001901F4C206840F48040206082
:1026A000206800F480400190012007900004089009
:1026B00002240D9480010E9010960F97CDF844805F
:1026C000CDF8489007A8FEF715F918B1012013B00E
:1026D000BDE8F0830F200290039404954FF4A050BE
:1026E00005904FF480500690052102A8FEF702F8ED
:1026F00008B10120EBE7FDF771FF41F201018842CB
:1027000004D10548016841F4807101600020DEE7D2
:102710004038024000700040003C024010B50B49B8
:10272000094A0A60486000208860C86008618861C2
:102730000C2048610846FEF763FEBDE81040012208
:1027400003490248FEF7D6BE0010014024010020D4
:102750000800002000000000000000000102030447
:102760000607080900000000010203048C27000886
:10277000000000205C00000000220008E82700089C
:102780005C0000206C050000102200080024F4000A
:102790000000000000000000000000000100000038
:1027A0001000000000000000020000000000010016
:1027B00000000000ED1E000800002C0100000000D9
:1027C000F11E0008014200000100020003000400A5
:1027D000050006000700080009000A000B000C00B5
:0827E0000D000E000F001000B7
:040000050800018965
:00000001FF
